{
  "_format": "hh-sol-artifact-1",
  "contractName": "CarbonCredit",
  "sourceName": "contracts/CarbonCredit.sol",
  "abi": [
    {
      "inputs": [],
      "stateMutability": "nonpayable",
      "type": "constructor"
    },
    {
      "anonymous": false,
      "inputs": [
        {
          "indexed": true,
          "internalType": "uint256",
          "name": "creditId",
          "type": "uint256"
        },
        {
          "indexed": true,
          "internalType": "address",
          "name": "buyer",
          "type": "address"
        },
        {
          "indexed": false,
          "internalType": "uint256",
          "name": "price",
          "type": "uint256"
        }
      ],
      "name": "CreditPurchased",
      "type": "event"
    },
    {
      "inputs": [
        {
          "internalType": "uint256",
          "name": "creditId",
          "type": "uint256"
        }
      ],
      "name": "buyCredit",
      "outputs": [],
      "stateMutability": "payable",
      "type": "function"
    },
    {
      "inputs": [
        {
          "internalType": "uint256",
          "name": "",
          "type": "uint256"
        }
      ],
      "name": "credits",
      "outputs": [
        {
          "internalType": "uint256",
          "name": "id",
          "type": "uint256"
        },
        {
          "internalType": "string",
          "name": "name",
          "type": "string"
        },
        {
          "internalType": "uint256",
          "name": "value",
          "type": "uint256"
        },
        {
          "internalType": "address",
          "name": "owner",
          "type": "address"
        },
        {
          "internalType": "bool",
          "name": "forSale",
          "type": "bool"
        }
      ],
      "stateMutability": "view",
      "type": "function"
    },
    {
      "inputs": [],
      "name": "getCredits",
      "outputs": [
        {
          "components": [
            {
              "internalType": "uint256",
              "name": "id",
              "type": "uint256"
            },
            {
              "internalType": "string",
              "name": "name",
              "type": "string"
            },
            {
              "internalType": "uint256",
              "name": "value",
              "type": "uint256"
            },
            {
              "internalType": "address",
              "name": "owner",
              "type": "address"
            },
            {
              "internalType": "bool",
              "name": "forSale",
              "type": "bool"
            }
          ],
          "internalType": "struct CarbonCredit.Credit[]",
          "name": "",
          "type": "tuple[]"
        }
      ],
      "stateMutability": "view",
      "type": "function"
    },
    {
      "inputs": [
        {
          "internalType": "uint256",
          "name": "creditId",
          "type": "uint256"
        },
        {
          "internalType": "uint256",
          "name": "price",
          "type": "uint256"
        }
      ],
      "name": "listCreditForSale",
      "outputs": [],
      "stateMutability": "nonpayable",
      "type": "function"
    },
    {
      "inputs": [],
      "name": "owner",
      "outputs": [
        {
          "internalType": "address",
          "name": "",
          "type": "address"
        }
      ],
      "stateMutability": "view",
      "type": "function"
    }
  ],
  "bytecode": "0x60806040523480156200001157600080fd5b5033600160006101000a81548173ffffffffffffffffffffffffffffffffffffffff021916908373ffffffffffffffffffffffffffffffffffffffff16021790555060006040518060a00160405280600181526020016040518060400160405280600c81526020017f536f6c6172204f66667365740000000000000000000000000000000000000000815250815260200166470de4df8200008152602001600160009054906101000a900473ffffffffffffffffffffffffffffffffffffffff1673ffffffffffffffffffffffffffffffffffffffff1681526020016001151581525090806001815401808255809150506001900390600052602060002090600402016000909190919091506000820151816000015560208201518160010190816200013e919062000591565b506040820151816002015560608201518160030160006101000a81548173ffffffffffffffffffffffffffffffffffffffff021916908373ffffffffffffffffffffffffffffffffffffffff16021790555060808201518160030160146101000a81548160ff021916908315150217905550505060006040518060a00160405280600281526020016040518060400160405280601481526020017f5265666f726573746174696f6e20437265646974000000000000000000000000815250815260200166b1a2bc2ec500008152602001600160009054906101000a900473ffffffffffffffffffffffffffffffffffffffff1673ffffffffffffffffffffffffffffffffffffffff1681526020016001151581525090806001815401808255809150506001900390600052602060002090600402016000909190919091506000820151816000015560208201518160010190816200029d919062000591565b506040820151816002015560608201518160030160006101000a81548173ffffffffffffffffffffffffffffffffffffffff021916908373ffffffffffffffffffffffffffffffffffffffff16021790555060808201518160030160146101000a81548160ff021916908315150217905550505062000678565b600081519050919050565b7f4e487b7100000000000000000000000000000000000000000000000000000000600052604160045260246000fd5b7f4e487b7100000000000000000000000000000000000000000000000000000000600052602260045260246000fd5b600060028204905060018216806200039957607f821691505b602082108103620003af57620003ae62000351565b5b50919050565b60008190508160005260206000209050919050565b60006020601f8301049050919050565b600082821b905092915050565b600060088302620004197fffffffffffffffffffffffffffffffffffffffffffffffffffffffffffffffff82620003da565b620004258683620003da565b95508019841693508086168417925050509392505050565b6000819050919050565b6000819050919050565b6000620004726200046c62000466846200043d565b62000447565b6200043d565b9050919050565b6000819050919050565b6200048e8362000451565b620004a66200049d8262000479565b848454620003e7565b825550505050565b600090565b620004bd620004ae565b620004ca81848462000483565b505050565b5b81811015620004f257620004e6600082620004b3565b600181019050620004d0565b5050565b601f82111562000541576200050b81620003b5565b6200051684620003ca565b8101602085101562000526578190505b6200053e6200053585620003ca565b830182620004cf565b50505b505050565b600082821c905092915050565b6000620005666000198460080262000546565b1980831691505092915050565b600062000581838362000553565b9150826002028217905092915050565b6200059c8262000317565b67ffffffffffffffff811115620005b857620005b762000322565b5b620005c4825462000380565b620005d1828285620004f6565b600060209050601f831160018114620006095760008415620005f4578287015190505b62000600858262000573565b86555062000670565b601f1984166200061986620003b5565b60005b8281101562000643578489015182556001820191506020850194506020810190506200061c565b868310156200066357848901516200065f601f89168262000553565b8355505b6001600288020188555050505b505050505050565b610d8c80620006886000396000f3fe60806040526004361061004a5760003560e01c8063036a1c221461004f5780631bea6d0b146100905780637211dde4146100b9578063823a71af146100d55780638da5cb5b14610100575b600080fd5b34801561005b57600080fd5b506100766004803603810190610071919061074e565b61012b565b604051610087959493929190610876565b60405180910390f35b34801561009c57600080fd5b506100b760048036038101906100b291906108d0565b610226565b005b6100d360048036038101906100ce919061074e565b61034f565b005b3480156100e157600080fd5b506100ea610577565b6040516100f79190610abf565b60405180910390f35b34801561010c57600080fd5b506101156106ed565b6040516101229190610ae1565b60405180910390f35b6000818154811061013b57600080fd5b906000526020600020906004020160009150905080600001549080600101805461016490610b2b565b80601f016020809104026020016040519081016040528092919081815260200182805461019090610b2b565b80156101dd5780601f106101b2576101008083540402835291602001916101dd565b820191906000526020600020905b8154815290600101906020018083116101c057829003601f168201915b5050505050908060020154908060030160009054906101000a900473ffffffffffffffffffffffffffffffffffffffff16908060030160149054906101000a900460ff16905085565b600080549050821061026d576040517f08c379a000000000000000000000000000000000000000000000000000000000815260040161026490610ba8565b60405180910390fd5b600080838154811061028257610281610bc8565b5b906000526020600020906004020190503373ffffffffffffffffffffffffffffffffffffffff168160030160009054906101000a900473ffffffffffffffffffffffffffffffffffffffff1673ffffffffffffffffffffffffffffffffffffffff1614610324576040517f08c379a000000000000000000000000000000000000000000000000000000000815260040161031b90610c43565b60405180910390fd5b81816002018190555060018160030160146101000a81548160ff021916908315150217905550505050565b6000805490508110610396576040517f08c379a000000000000000000000000000000000000000000000000000000000815260040161038d90610ba8565b60405180910390fd5b60008082815481106103ab576103aa610bc8565b5b906000526020600020906004020190508060030160149054906101000a900460ff1661040c576040517f08c379a000000000000000000000000000000000000000000000000000000000815260040161040390610caf565b60405180910390fd5b8060020154341015610453576040517f08c379a000000000000000000000000000000000000000000000000000000000815260040161044a90610d1b565b60405180910390fd5b60008160030160009054906101000a900473ffffffffffffffffffffffffffffffffffffffff169050338260030160006101000a81548173ffffffffffffffffffffffffffffffffffffffff021916908373ffffffffffffffffffffffffffffffffffffffff16021790555060008260030160146101000a81548160ff0219169083151502179055508073ffffffffffffffffffffffffffffffffffffffff166108fc349081150290604051600060405180830381858888f19350505050158015610522573d6000803e3d6000fd5b503373ffffffffffffffffffffffffffffffffffffffff16837f3b8d1e20a95ae79255c18f179cf68d6b7e2f6befd244ea5981adea0eb5f5eb213460405161056a9190610d3b565b60405180910390a3505050565b60606000805480602002602001604051908101604052809291908181526020016000905b828210156106e457838290600052602060002090600402016040518060a0016040529081600082015481526020016001820180546105d890610b2b565b80601f016020809104026020016040519081016040528092919081815260200182805461060490610b2b565b80156106515780601f1061062657610100808354040283529160200191610651565b820191906000526020600020905b81548152906001019060200180831161063457829003601f168201915b50505050508152602001600282015481526020016003820160009054906101000a900473ffffffffffffffffffffffffffffffffffffffff1673ffffffffffffffffffffffffffffffffffffffff1673ffffffffffffffffffffffffffffffffffffffff1681526020016003820160149054906101000a900460ff1615151515815250508152602001906001019061059b565b50505050905090565b600160009054906101000a900473ffffffffffffffffffffffffffffffffffffffff1681565b600080fd5b6000819050919050565b61072b81610718565b811461073657600080fd5b50565b60008135905061074881610722565b92915050565b60006020828403121561076457610763610713565b5b600061077284828501610739565b91505092915050565b61078481610718565b82525050565b600081519050919050565b600082825260208201905092915050565b60005b838110156107c45780820151818401526020810190506107a9565b60008484015250505050565b6000601f19601f8301169050919050565b60006107ec8261078a565b6107f68185610795565b93506108068185602086016107a6565b61080f816107d0565b840191505092915050565b600073ffffffffffffffffffffffffffffffffffffffff82169050919050565b60006108458261081a565b9050919050565b6108558161083a565b82525050565b60008115159050919050565b6108708161085b565b82525050565b600060a08201905061088b600083018861077b565b818103602083015261089d81876107e1565b90506108ac604083018661077b565b6108b9606083018561084c565b6108c66080830184610867565b9695505050505050565b600080604083850312156108e7576108e6610713565b5b60006108f585828601610739565b925050602061090685828601610739565b9150509250929050565b600081519050919050565b600082825260208201905092915050565b6000819050602082019050919050565b61094581610718565b82525050565b600082825260208201905092915050565b60006109678261078a565b610971818561094b565b93506109818185602086016107a6565b61098a816107d0565b840191505092915050565b61099e8161083a565b82525050565b6109ad8161085b565b82525050565b600060a0830160008301516109cb600086018261093c565b50602083015184820360208601526109e3828261095c565b91505060408301516109f8604086018261093c565b506060830151610a0b6060860182610995565b506080830151610a1e60808601826109a4565b508091505092915050565b6000610a3583836109b3565b905092915050565b6000602082019050919050565b6000610a5582610910565b610a5f818561091b565b935083602082028501610a718561092c565b8060005b85811015610aad5784840389528151610a8e8582610a29565b9450610a9983610a3d565b925060208a01995050600181019050610a75565b50829750879550505050505092915050565b60006020820190508181036000830152610ad98184610a4a565b905092915050565b6000602082019050610af6600083018461084c565b92915050565b7f4e487b7100000000000000000000000000000000000000000000000000000000600052602260045260246000fd5b60006002820490506001821680610b4357607f821691505b602082108103610b5657610b55610afc565b5b50919050565b7f43726564697420646f6573206e6f742065786973740000000000000000000000600082015250565b6000610b92601583610795565b9150610b9d82610b5c565b602082019050919050565b60006020820190508181036000830152610bc181610b85565b9050919050565b7f4e487b7100000000000000000000000000000000000000000000000000000000600052603260045260246000fd5b7f596f7520617265206e6f7420746865206f776e65720000000000000000000000600082015250565b6000610c2d601583610795565b9150610c3882610bf7565b602082019050919050565b60006020820190508181036000830152610c5c81610c20565b9050919050565b7f437265646974206973206e6f7420666f722073616c6500000000000000000000600082015250565b6000610c99601683610795565b9150610ca482610c63565b602082019050919050565b60006020820190508181036000830152610cc881610c8c565b9050919050565b7f496e73756666696369656e742066756e64730000000000000000000000000000600082015250565b6000610d05601283610795565b9150610d1082610ccf565b602082019050919050565b60006020820190508181036000830152610d3481610cf8565b9050919050565b6000602082019050610d50600083018461077b565b9291505056fea26469706673582212208bc13093746b875883dd45c2f35ecbf6c22ac4d47a47a1d66b99c7c8773dfb2764736f6c63430008140033",
  "linkReferences": {},
  "deployedLinkReferences": {}
}